{
  "contractName": "Auction",
  "abi": [
    {
      "constant": true,
      "inputs": [],
      "name": "beneficiary",
      "outputs": [
        {
          "name": "",
          "type": "address"
        }
      ],
      "payable": false,
      "stateMutability": "view",
      "type": "function"
    },
    {
      "constant": true,
      "inputs": [],
      "name": "auctionStart",
      "outputs": [
        {
          "name": "",
          "type": "uint256"
        }
      ],
      "payable": false,
      "stateMutability": "view",
      "type": "function"
    },
    {
      "constant": true,
      "inputs": [],
      "name": "highestBidder",
      "outputs": [
        {
          "name": "",
          "type": "address"
        }
      ],
      "payable": false,
      "stateMutability": "view",
      "type": "function"
    },
    {
      "constant": true,
      "inputs": [],
      "name": "biddingTime",
      "outputs": [
        {
          "name": "",
          "type": "uint256"
        }
      ],
      "payable": false,
      "stateMutability": "view",
      "type": "function"
    },
    {
      "constant": true,
      "inputs": [],
      "name": "highestBid",
      "outputs": [
        {
          "name": "",
          "type": "uint256"
        }
      ],
      "payable": false,
      "stateMutability": "view",
      "type": "function"
    },
    {
      "constant": true,
      "inputs": [],
      "name": "startingPrice",
      "outputs": [
        {
          "name": "",
          "type": "uint256"
        }
      ],
      "payable": false,
      "stateMutability": "view",
      "type": "function"
    },
    {
      "inputs": [
        {
          "name": "_beneficiary",
          "type": "address"
        },
        {
          "name": "_auctionLength",
          "type": "uint256"
        },
        {
          "name": "_title",
          "type": "string"
        },
        {
          "name": "_description",
          "type": "string"
        },
        {
          "name": "_startingPrice",
          "type": "uint256"
        }
      ],
      "payable": false,
      "stateMutability": "nonpayable",
      "type": "constructor"
    },
    {
      "anonymous": false,
      "inputs": [
        {
          "indexed": false,
          "name": "bidder",
          "type": "address"
        },
        {
          "indexed": false,
          "name": "amount",
          "type": "uint256"
        }
      ],
      "name": "HighestBidIncreased",
      "type": "event"
    },
    {
      "anonymous": false,
      "inputs": [
        {
          "indexed": false,
          "name": "winner",
          "type": "address"
        },
        {
          "indexed": false,
          "name": "amount",
          "type": "uint256"
        }
      ],
      "name": "AuctionEnded",
      "type": "event"
    },
    {
      "constant": false,
      "inputs": [],
      "name": "bid",
      "outputs": [],
      "payable": true,
      "stateMutability": "payable",
      "type": "function"
    },
    {
      "constant": false,
      "inputs": [],
      "name": "withdraw",
      "outputs": [
        {
          "name": "",
          "type": "bool"
        }
      ],
      "payable": false,
      "stateMutability": "nonpayable",
      "type": "function"
    },
    {
      "constant": false,
      "inputs": [],
      "name": "auctionEnd",
      "outputs": [],
      "payable": false,
      "stateMutability": "nonpayable",
      "type": "function"
    },
    {
      "constant": true,
      "inputs": [],
      "name": "returnContents",
      "outputs": [
        {
          "name": "",
          "type": "string"
        },
        {
          "name": "",
          "type": "uint256"
        },
        {
          "name": "",
          "type": "string"
        },
        {
          "name": "",
          "type": "uint256"
        },
        {
          "name": "",
          "type": "uint256"
        }
      ],
      "payable": false,
      "stateMutability": "view",
      "type": "function"
    }
  ],
  "bytecode": "0x608060405234801561001057600080fd5b50604051610b95380380610b95833981018060405260a081101561003357600080fd5b810190808051906020019092919080519060200190929190805164010000000081111561005f57600080fd5b8281019050602081018481111561007557600080fd5b815185600182028301116401000000008211171561009257600080fd5b505092919060200180516401000000008111156100ae57600080fd5b828101905060208101848111156100c457600080fd5b81518560018202830111640100000000821117156100e157600080fd5b505092919060200180519060200190929190505050826004908051906020019061010c929190610183565b508160059080519060200190610123929190610183565b50846000806101000a81548173ffffffffffffffffffffffffffffffffffffffff021916908373ffffffffffffffffffffffffffffffffffffffff1602179055504260018190555083600281905550806003819055505050505050610228565b828054600181600116156101000203166002900490600052602060002090601f016020900481019282601f106101c457805160ff19168380011785556101f2565b828001600101855582156101f2579182015b828111156101f15782518255916020019190600101906101d6565b5b5090506101ff9190610203565b5090565b61022591905b80821115610221576000816000905550600101610209565b5090565b90565b61095e806102376000396000f3fe6080604052600436106100a4576000357c0100000000000000000000000000000000000000000000000000000000900463ffffffff1680631998aeef146100a95780632a24f46c146100b357806338af3eed146100ca5780633ccfd60b146101215780634f245ef71461015057806391f901571461017b578063c8287b58146101d2578063d074a38d146102e3578063d57bde791461030e578063d6fbf20214610339575b600080fd5b6100b1610364565b005b3480156100bf57600080fd5b506100c8610506565b005b3480156100d657600080fd5b506100df61064a565b604051808273ffffffffffffffffffffffffffffffffffffffff1673ffffffffffffffffffffffffffffffffffffffff16815260200191505060405180910390f35b34801561012d57600080fd5b5061013661066f565b604051808215151515815260200191505060405180910390f35b34801561015c57600080fd5b50610165610795565b6040518082815260200191505060405180910390f35b34801561018757600080fd5b5061019061079b565b604051808273ffffffffffffffffffffffffffffffffffffffff1673ffffffffffffffffffffffffffffffffffffffff16815260200191505060405180910390f35b3480156101de57600080fd5b506101e76107c1565b604051808060200186815260200180602001858152602001848152602001838103835288818151815260200191508051906020019080838360005b8381101561023d578082015181840152602081019050610222565b50505050905090810190601f16801561026a5780820380516001836020036101000a031916815260200191505b50838103825286818151815260200191508051906020019080838360005b838110156102a3578082015181840152602081019050610288565b50505050905090810190601f1680156102d05780820380516001836020036101000a031916815260200191505b5097505050505050505060405180910390f35b3480156102ef57600080fd5b506102f8610920565b6040518082815260200191505060405180910390f35b34801561031a57600080fd5b50610323610926565b6040518082815260200191505060405180910390f35b34801561034557600080fd5b5061034e61092c565b6040518082815260200191505060405180910390f35b6002546001540142111561037757600080fd5b6007543411151561038757600080fd5b600073ffffffffffffffffffffffffffffffffffffffff16600660009054906101000a900473ffffffffffffffffffffffffffffffffffffffff1673ffffffffffffffffffffffffffffffffffffffff161415156104515760075460086000600660009054906101000a900473ffffffffffffffffffffffffffffffffffffffff1673ffffffffffffffffffffffffffffffffffffffff1673ffffffffffffffffffffffffffffffffffffffff168152602001908152602001600020600082825401925050819055505b33600660006101000a81548173ffffffffffffffffffffffffffffffffffffffff021916908373ffffffffffffffffffffffffffffffffffffffff160217905550346007819055507ff4757a49b326036464bec6fe419a4ae38c8a02ce3e68bf0809674f6aab8ad3003334604051808373ffffffffffffffffffffffffffffffffffffffff1673ffffffffffffffffffffffffffffffffffffffff1681526020018281526020019250505060405180910390a1565b600254600154014211151561051a57600080fd5b600960009054906101000a900460ff161561053457600080fd5b6001600960006101000a81548160ff0219169083151502179055507fdaec4582d5d9595688c8c98545fdd1c696d41c6aeaeb636737e84ed2f5c00eda600660009054906101000a900473ffffffffffffffffffffffffffffffffffffffff16600754604051808373ffffffffffffffffffffffffffffffffffffffff1673ffffffffffffffffffffffffffffffffffffffff1681526020018281526020019250505060405180910390a16000809054906101000a900473ffffffffffffffffffffffffffffffffffffffff1673ffffffffffffffffffffffffffffffffffffffff166108fc6007549081150290604051600060405180830381858888f19350505050158015610647573d6000803e3d6000fd5b50565b6000809054906101000a900473ffffffffffffffffffffffffffffffffffffffff1681565b600080600860003373ffffffffffffffffffffffffffffffffffffffff1673ffffffffffffffffffffffffffffffffffffffff168152602001908152602001600020549050600081111561078c576000600860003373ffffffffffffffffffffffffffffffffffffffff1673ffffffffffffffffffffffffffffffffffffffff168152602001908152602001600020819055503373ffffffffffffffffffffffffffffffffffffffff166108fc829081150290604051600060405180830381858888f19350505050151561078b5780600860003373ffffffffffffffffffffffffffffffffffffffff1673ffffffffffffffffffffffffffffffffffffffff168152602001908152602001600020819055506000915050610792565b5b60019150505b90565b60015481565b600660009054906101000a900473ffffffffffffffffffffffffffffffffffffffff1681565b60606000606060008060046003546005600154600254848054600181600116156101000203166002900480601f01602080910402602001604051908101604052809291908181526020018280546001816001161561010002031660029004801561086c5780601f106108415761010080835404028352916020019161086c565b820191906000526020600020905b81548152906001019060200180831161084f57829003601f168201915b50505050509450828054600181600116156101000203166002900480601f0160208091040260200160405190810160405280929190818152602001828054600181600116156101000203166002900480156109085780601f106108dd57610100808354040283529160200191610908565b820191906000526020600020905b8154815290600101906020018083116108eb57829003601f168201915b50505050509250945094509450945094509091929394565b60025481565b60075481565b6003548156fea165627a7a723058206330b114ad5fc44337be21a7275ee40fb5a71f6451ecfa9b259c638bfdbe1eb40029",
  "source": "pragma solidity ^0.5.0;\r\n\r\ncontract AuctionBox {\r\n    Auction[] public auctions;\r\n    function createAuction(\r\n        string memory _title,\r\n        uint256 _startingPrice,\r\n        string memory _description,\r\n        uint256 _auctionLength\r\n    ) public {\r\n        require(_startingPrice > 0);\r\n        // set the new instanc\r\n        Auction newAuction = new Auction(\r\n            msg.sender,\r\n            _auctionLength,\r\n            _title,\r\n            _description,\r\n            _startingPrice\r\n        );\r\n        // push the auction address to auctions array\r\n        auctions.push(newAuction);\r\n    }\r\n\r\n    function returnAllAuctions() public view returns (Auction[] memory) {\r\n        return auctions;\r\n    }\r\n}\r\ncontract Auction {\r\n    // Parameters of the auction. Times are either\r\n    // absolute unix timestamps (seconds since 1970-01-01)\r\n    // or time periods in seconds.\r\n    address payable public beneficiary;\r\n    uint256 public auctionStart;\r\n    uint256 public biddingTime;\r\n    uint256 public startingPrice;\r\n    string title;\r\n    string description;\r\n    // Current state of the auction.\r\n    address public highestBidder;\r\n    uint256 public highestBid;\r\n\r\n    // Allowed withdrawals of previous bids\r\n    mapping(address => uint256) pendingReturns;\r\n\r\n    // Set to true at the end, disallows any change\r\n    bool ended;\r\n\r\n    // Events that will be fired on changes.\r\n    event HighestBidIncreased(address bidder, uint256 amount);\r\n    event AuctionEnded(address winner, uint256 amount);\r\n\r\n    // The following is a so-called natspec comment,\r\n    // recognizable by the three slashes.\r\n    // It will be shown when the user is asked to\r\n    // confirm a transaction.\r\n\r\n    /// Create a simple auction with `_auctionLength`\r\n    /// seconds bidding time on behalf of the\r\n    /// beneficiary address `_beneficiary`.\r\n    constructor(\r\n        address payable _beneficiary,\r\n        uint256 _auctionLength,\r\n        string memory _title,\r\n        string memory _description,\r\n        uint256 _startingPrice\r\n    ) public {\r\n        title = _title;\r\n        description = _description;\r\n        beneficiary = _beneficiary;\r\n        auctionStart = now;\r\n        biddingTime = _auctionLength;\r\n        startingPrice = _startingPrice;\r\n    }\r\n\r\n    /// Bid on the auction with the value sent\r\n    /// together with this transaction.\r\n    /// The value will only be refunded if the\r\n    /// auction is not won.\r\n    function bid() public payable {\r\n        // No arguments are necessary, all\r\n        // information is already part of\r\n        // the transaction. The keyword payable\r\n        // is required for the function to\r\n        // be able to receive Ether.\r\n        if (now > auctionStart + biddingTime) {\r\n            // Revert the call if the bidding\r\n            // period is over.\r\n            revert();\r\n        }\r\n        if (msg.value <= highestBid) {\r\n            // If the bid is not higher, send the\r\n            // money back.\r\n            revert();\r\n        }\r\n        if (highestBidder != address(0)) {\r\n            // Sending back the money by simply using\r\n            // highestBidder.send(highestBid) is a security risk\r\n            // because it can be prevented by the caller by e.g.\r\n            // raising the call stack to 1023. It is always safer\r\n            // to let the recipient withdraw their money themselves.\r\n            pendingReturns[highestBidder] += highestBid;\r\n        }\r\n        highestBidder = msg.sender;\r\n        highestBid = msg.value;\r\n        emit HighestBidIncreased(msg.sender, msg.value);\r\n    }\r\n\r\n    /// Withdraw a bid that was overbid.\r\n    function withdraw() public returns (bool) {\r\n        uint256 amount = pendingReturns[msg.sender];\r\n        if (amount > 0) {\r\n            // It is important to set this to zero because the recipient\r\n            // can call this function again as part of the receiving call\r\n            // before `send` returns.\r\n            pendingReturns[msg.sender] = 0;\r\n\r\n            if (!msg.sender.send(amount)) {\r\n                // No need to call throw here, just reset the amount owing\r\n                pendingReturns[msg.sender] = amount;\r\n                return false;\r\n            }\r\n        }\r\n        return true;\r\n    }\r\n\r\n    /// End the auction and send the highest bid\r\n    /// to the beneficiary.\r\n    function auctionEnd() public {\r\n        // It is a good guideline to structure functions that interact\r\n        // with other contracts (i.e. they call functions or send Ether)\r\n        // into three phases:\r\n        // 1. checking conditions\r\n        // 2. performing actions (potentially changing conditions)\r\n        // 3. interacting with other contracts\r\n        // If these phases are mixed up, the other contract could call\r\n        // back into the current contract and modify the state or cause\r\n        // effects (ether payout) to be perfromed multiple times.\r\n        // If functions called internally include interaction with external\r\n        // contracts, they also have to be considered interaction with\r\n        // external contracts.\r\n\r\n        // 1. Conditions\r\n        if (now <= auctionStart + biddingTime) revert(); // auction did not yet end\r\n        if (ended) revert(); // this function has already been called\r\n\r\n        // 2. Effects\r\n        ended = true;\r\n        emit AuctionEnded(highestBidder, highestBid);\r\n\r\n        // 3. Interaction\r\n        // if (!beneficiary.send(highestBid))\r\n        //   revert();\r\n        beneficiary.transfer(highestBid);\r\n    }\r\n\r\n    function returnContents() public view returns(\r\n        string memory,\r\n        uint256,\r\n        string memory,\r\n        uint256,\r\n        uint256\r\n        ) {\r\n        return (\r\n            title,\r\n            startingPrice,\r\n            description,\r\n            auctionStart,\r\n            biddingTime\r\n        );\r\n    }\r\n}\r\n\r\n// contract Auction {\r\n//     /* Determine the state of the auction. */\r\n//     enum AuctionState {IN_PROGRESS, CALCULATING, COMPLETED}\r\n\r\n//     /* EVENTS */\r\n//     event Bid(address bidder);\r\n//     event Winner(address winner, uint256 bidValue);\r\n\r\n//     /* BIDDER */\r\n//     struct Bidder {\r\n//         bool hasBidded;\r\n//         bytes bidValue;\r\n//     }\r\n\r\n//     /* STATE VARIABLES */\r\n//     address payable public owner;\r\n//     uint256 public startTime;\r\n//     uint256 public endTime;\r\n//     address public winner;\r\n//     uint256 public startingPrice;\r\n//     uint256 public winningPrice;\r\n//     mapping(address => Bidder) public bidders;\r\n//     mapping(address => uint256) public stakeAmounts;\r\n//     address[] public bidderAddresses;\r\n//     AuctionState public state;\r\n//     bool public rewardClaimed;\r\n//     string title;\r\n//     string description;\r\n\r\n//     /* CONSTRUCTOR */\r\n//     constructor(\r\n//         address payable _owner, string memory _title, string memory _description,\r\n//         uint256 _auctionLength, uint256 _startingPrice)\r\n//         public\r\n//     {\r\n//         owner = _owner;\r\n//         startingPrice = _startingPrice;\r\n//         startTime = now;\r\n//         title = _title;\r\n//         description = _description;\r\n//         endTime = startTime + _auctionLength * 1 seconds;\r\n//         state = AuctionState.IN_PROGRESS; // redundant\r\n//     }\r\n\r\n//     /*\r\n//    * Stake Ether in the contract to create a binding commitment. You can increase stake anytime within the bidding period.\r\n//    */\r\n//     function stake() external payable {\r\n//         require(\r\n//             state == AuctionState.IN_PROGRESS,\r\n//             \"State should be in progress\"\r\n//         );\r\n//         stakeAmounts[msg.sender] += msg.value;\r\n//     }\r\n\r\n//     /*\r\n//    * Withdraw Ether after the bidding period has ended.\r\n//    */\r\n//     function withdraw() external {\r\n//         require(state == AuctionState.COMPLETED, \"State should be completed\");\r\n//         require(stakeAmounts[msg.sender] > 0, \"Amount greater than 0\");\r\n//         uint256 amount = stakeAmounts[msg.sender];\r\n//         stakeAmounts[msg.sender] = 0;\r\n//         msg.sender.transfer(amount);\r\n//     }\r\n\r\n//     /*\r\n//    * Bid in the auction. The value of the bid(in wei) is encrypted.\r\n//    * NOTE: A user can bid multiple times as long as it's within the bidding period.\r\n//    */\r\n//     function bid(bytes calldata _bidValue) external {\r\n//         require(now < endTime, \"not expired yet\"); // a user can only bid within the time period\r\n//         require(stakeAmounts[msg.sender] >= startingPrice); // a user can only bid if they have enough stake to fill the initial starting value\r\n//         bidders[msg.sender].bidValue = _bidValue;\r\n//         if (!(bidders[msg.sender].hasBidded)) {\r\n//             bidders[msg.sender].hasBidded = true;\r\n//         }\r\n//         emit Bid(msg.sender);\r\n//     }\r\n\r\n//     /*\r\n//    * End the auction. Only the creator of the auction can end the auction(when the bidding period has expired).\r\n//    */\r\n//     function endAuction() external isOwner {\r\n//         require(state == AuctionState.IN_PROGRESS);\r\n//         //require(now >= endTime);\r\n//         state = AuctionState.CALCULATING;\r\n//     }\r\n\r\n//     /*\r\n//    * The callable function. Gets the highest bidder and bid amount for the auction.\r\n//    * NOTE: In the event of a tie, we're just taking the first bidder.\r\n//    */\r\n//     function getHighestBidder(\r\n//         address[] memory _bidders,\r\n//         uint256[] memory _bidAmounts,\r\n//         uint256[] memory _stakeAmounts\r\n//     ) public pure returns (address, uint256) {\r\n//         address highestBidder;\r\n//         uint256 highestBidAmount;\r\n//         for (uint256 i = 0; i < _bidders.length; i++) {\r\n//             if (\r\n//                 (_bidAmounts[i] > highestBidAmount) &&\r\n//                 (_bidAmounts[i] <= _stakeAmounts[i])\r\n//             ) {\r\n//                 highestBidAmount = _bidAmounts[i];\r\n//                 highestBidder = _bidders[i];\r\n//             }\r\n//         }\r\n//         return (highestBidder, highestBidAmount);\r\n//     }\r\n\r\n//     /*\r\n//    * The callback function. Updates the contract state.\r\n//    */\r\n//     function updateWinner(address _highestBidder, uint256 _highestBidAmount)\r\n//         public\r\n//     //onlyEnigma comment this out for testing\r\n//     {\r\n//         winner = _highestBidder;\r\n//         winningPrice = _highestBidAmount;\r\n//         state = AuctionState.COMPLETED;\r\n//         stakeAmounts[_highestBidder] -= winningPrice;\r\n//         emit Winner(_highestBidder, _highestBidAmount);\r\n//     }\r\n\r\n//     /*\r\n//    * Allow a user to claim their reward.\r\n//    */\r\n//     function claimReward() external {\r\n//         require(state == AuctionState.COMPLETED);\r\n//         require(msg.sender == winner);\r\n//         require(!rewardClaimed);\r\n//         rewardClaimed = true;\r\n//         //enigmaCollectible.mintToken(msg.sender, endTime);  // mint an ERC721 Enigma Collectible with arbitrary tokenID (just use the end time)\r\n//     }\r\n\r\n//     /*\r\n//    * Allow the creator of the auction to claim the winner's stake.\r\n//    */\r\n//     function claimEther() external isOwner {\r\n//         require(state == AuctionState.COMPLETED);\r\n//         msg.sender.transfer(winningPrice);\r\n//     }\r\n\r\n//     /*\r\n//    * Modifier that checks that the contract caller is the Enigma contract.\r\n//    */\r\n//     //   modifier onlyEnigma() {\r\n//     //     require(msg.sender == address(enigma));\r\n//     //     _;\r\n//     //   }\r\n\r\n//     /*\r\n//    * Modifier that checks if the caller is the creator of the auction.\r\n//    */\r\n//     modifier isOwner() {\r\n//         require(msg.sender == owner);\r\n//         _;\r\n//     }\r\n\r\n//     /*\r\n//    * Check that a user has bidded.\r\n//    */\r\n//     function hasBidded(address _bidder) public view returns (bool) {\r\n//         return bidders[_bidder].hasBidded;\r\n//     }\r\n\r\n//     /*\r\n//    * Get the encrypted bid value for a bidder.\r\n//    */\r\n//     function getBidValueForBidder(address _bidder)\r\n//         public\r\n//         view\r\n//         returns (bytes memory)\r\n//     {\r\n//         require(hasBidded(_bidder), \"User has not bidded yet.\");\r\n//         return bidders[_bidder].bidValue;\r\n//     }\r\n\r\n//     /*\r\n//    * Get the staked Ether amount for a given bidder.\r\n//    */\r\n//     function getStakeOfBidder(address _bidder) public view returns (uint256) {\r\n//         return stakeAmounts[_bidder];\r\n//     }\r\n\r\n//     /*\r\n//    * Get the winner of the auction (if available).\r\n//    */\r\n//     function getWinner() public view returns (address) {\r\n//         require(state == AuctionState.COMPLETED);\r\n//         return winner;\r\n//     }\r\n\r\n// }\r\n\r\n",
  "sourcePath": "C:/Users/atyag/OneDrive/Documents/DAPP Project/starter_kit/src/contracts/Auction.sol",
  "compiler": {
    "name": "solc",
    "version": "0.5.0+commit.1d4f565a.Emscripten.clang"
  },
  "schemaVersion": "3.0.2",
  "updatedAt": "2020-04-05T04:19:38.400Z",
  "devdoc": {
    "methods": {}
  },
  "userdoc": {
    "methods": {
      "auctionEnd()": {
        "notice": "to the beneficiary."
      },
      "bid()": {
        "notice": "auction is not won."
      },
      "constructor": "beneficiary address `_beneficiary`.",
      "withdraw()": {
        "notice": "Withdraw a bid that was overbid."
      }
    }
  }
}